:100000000C9472000C949A000C949A000C949A0030
:100010000C949A000C949A000C949A000C949A00F8
:100020000C949A000C949A000C949A000C949A00E8
:100030000C949A000C949A000C949A000C949A00D8
:100040000C9400040C949A000C9470040C944A04D0
:100050000C949A000C949A000C949A000C949A00B8
:100060000C949A000C949A00C401CA01D001D601E4
:10007000DC01E201E8011903200327032E03350305
:100080004C033C034C034303000000002300260004
:10009000290000000000240027002A0000000000C2
:1000A000250028002B0004040404040404040202B4
:1000B00002020202030303030303010204081020E7
:1000C00040800102040810200102040810200000F2
:1000D0000008000201000003040700000000000007
:1000E0000000B80D11241FBECFEFD8E0DEBFCDBF9A
:1000F00011E0A0E0B1E0E8E2F4E202C005900D9268
:10010000A239B107D9F723E0A2E9B1E001C01D92FD
:10011000A630B207E1F710E0C2E7D0E004C02197B3
:10012000FE010E940712C137D107C9F70E94A10939
:100130000C9412120C940000CF92DF92EF92FF9277
:100140000F931F93CF93DF936C017A018B01C0E073
:10015000D0E0CE15DF0581F0D8016D918D01D6017B
:10016000ED91FC910190F081E02DC6010995892B5C
:1001700011F02196EECF7E01C701DF91CF911F9143
:100180000F91FF90EF90DF90CF900895089580E059
:1001900090E00895FC01538D448D252F30E0842F8D
:1001A00090E0821B930B541710F0CF96089501979F
:1001B0000895FC01918D828D981761F0828DDF0189
:1001C000A80FB11D5D968C91928D9F5F9F73928F4A
:1001D00090E008958FEF9FEF0895FC01918D828D3F
:1001E000981731F0828DE80FF11D858D90E008950C
:1001F0008FEF9FEF0895FC01918D228D892F90E064
:10020000805C9F4F821B91098F73992708958CEA18
:1002100091E00E94FB0021E0892B09F420E0822F6D
:100220000895FC01848DDF01A80FB11DA35ABF4FB3
:100230002C91848D90E001968F739927848FA689E5
:10024000B7892C93A089B1898C91837080648C9339
:10025000938D848D981306C00288F389E02D8081E8
:100260008F7D80830895EF92FF920F931F93CF931A
:10027000DF93EC0181E0888F9B8D8C8D981305C0F6
:10028000E889F989808185FD26C0F62E0B8D10E066
:100290000F5F1F4F0F731127E02E8C8DE8120CC0DB
:1002A0000FB607FCFACFE889F989808185FFF5CF81
:1002B000CE010E941101F1CF8B8DFE01E80FF11DDF
:1002C000E35AFF4FF0829FB7F8940B8FEA89FB89BE
:1002D000808180620AC09FB7F894EE89FF896083AD
:1002E000E889F98980818370806480839FBF81E081
:1002F00090E0DF91CF911F910F91FF90EF900895C3
:10030000CF93DF93EC01888D8823C9F0EA89FB89BC
:10031000808185FD05C0A889B9898C9186FD0FC0B3
:100320000FB607FCF5CF808185FFF2CFA889B98988
:100330008C9185FFEDCFCE010E941101E7CFDF91B7
:10034000CF91089580E090E0892B29F00E94070169
:1003500081110C9400000895CF93DF9347705527C7
:1003600066277727FA013197EC01A881B981E73038
:10037000F10520F4EC5CFF4F0C9407121496ED91FC
:10038000FC91159761E029C01496ED91FC911597A9
:1003900065E023C01496ED91FC91159764E01DC0B3
:1003A0001496ED91FC91159766E017C01496ED91A7
:1003B000FC91159762E011C01496ED91FC91159790
:1003C0006AE00BC01496ED91FC91159768E005C0AA
:1003D0001496ED91FC91159769E0DF91CF91099406
:1003E000CF93DF93EC01CB01BA0126E030E040E08F
:1003F00050E00E94E811623071058105910559F1C4
:100400008CF46115710581059105F1F0613071057C
:1004100081059105C1F5E881F9810480F581E02D20
:1004200065E02DC0643071058105910511F1D4F0AE
:10043000653071058105910531F5E881F981048008
:10044000F581E02D66E01BC0E881F9810480F5812B
:10045000E02D64E014C0E881F9810480F581E02D8D
:1004600061E00DC0E881F9810480F581E02D63E051
:1004700006C0E881F9810480F581E02D62E0CE01BB
:10048000DF91CF910994DF91CF9108954370552763
:1004900066277727DC01ED91FC910480F581E02D42
:1004A000423051056105710571F043305105610518
:1004B000710559F0413051056105710511F065E094
:1004C00005C066E003C06AE001C069E00994CF930B
:1004D000DF93EC01CB01BA0123E030E040E050E0D3
:1004E0000E94E811613071058105910581F062304B
:1004F00071058105910591F0672B682B692BC1F47B
:10050000E881F9810480F581E02D64E00DC0E88187
:10051000F9810480F581E02D61E006C0E881F98170
:100520000480F581E02D62E0CE01DF91CF91099446
:10053000DF91CF9108954370552766277727DC0117
:10054000ED91FC910480F581E02D4230510561056B
:10055000710571F0433051056105710559F0413065
:1005600051056105710511F062E005C063E003C04B
:1005700061E001C060E00994CF93DF93EC01E88172
:10058000F9810480F581E02D8A81811102C060E04B
:1005900001C062E0CE010995E881F9810480F5810E
:1005A000E02D8A81811102C061E001C063E0CE01CB
:1005B00009958CA59DA58230910538F0880F991F6B
:1005C000880F991F05970197F1F7E881F981048059
:1005D000F581E02D8A81811102C060E001C062E0F6
:1005E000CE01DF91CF910994CF93DF93EC0120E00E
:1005F00030E0A9016C897D898E899F890E94F9105C
:1006000018161CF4E8A9F9A902C0EAA9FBA9DF9110
:10061000CF9109940F931F93DC011396EC910E2F49
:1006200010E009301105C0F5F801E55CFF4F0C94AE
:100630000712DC01ED91FC910084F185E02D29C0C9
:10064000DC01ED91FC910284F385E02D22C0DC01F8
:10065000ED91FC910484F585E02D1BC0DC01ED914A
:10066000FC910684F785E02D14C0DC01ED91FC912E
:100670000088F189E02D0DC0DC01ED91FC9102882C
:10068000F389E02D06C0DC01ED91FC910488F58929
:10069000E02D1F910F9109941F910F910895CF9212
:1006A000DF92EF92FF920F931F93CF93DF93EC01B2
:1006B0009B81943041F0983031F0933031F0963096
:1006C00021F012E003C014E001C013E02496E12CF5
:1006D000F12CC62ED12C01E0C6010E2C02C095953E
:1006E00087950A94E2F76C8180FD602789910E94CA
:1006F000DA078FEFE81AF80AE11670F3DF91CF916D
:100700001F910F91FF90EF90DF90CF900895CF93BE
:10071000DF93FC012381222359F1EC0161E0848104
:100720000E942B0961E08D810E942B098B8184300E
:1007300011F0883039F461E08E810E942B0961E06C
:100740008F8106C0833011F0863021F461E08E8104
:100750000E942B098FA58F3F59F061E00E942B0961
:100760006EA581E068278FA5DF91CF910C94DA0701
:10077000DF91CF910895CF93DF93FC012381222352
:10078000A9F0EC010190F081E02D0480F581E02DCD
:1007900060E009958FA58F3F49F061E00E942B0929
:1007A0006EA58FA5DF91CF910C94DA07DF91CF91E1
:1007B00008950E940D123FB7F8948091990190918D
:1007C0009A01A0919B01B0919C0126B5A89B05C000
:1007D0002F3F19F00196A11DB11D3FBFBA2FA92FC0
:1007E000982F8827820F911DA11DB11DBC01CD013D
:1007F00042E0660F771F881F991F4A95D1F7089529
:100800001F920F920FB60F9211242F933F938F9345
:100810009F93AF93BF938091950190919601A09182
:100820009701B09198013091940123E0230F2D3767
:1008300020F40196A11DB11D05C026E8230F0296E4
:10084000A11DB11D20939401809395019093960171
:10085000A0939701B09398018091990190919A018A
:10086000A0919B01B0919C010196A11DB11D8093A7
:10087000990190939A01A0939B01B0939C01BF9121
:10088000AF919F918F913F912F910F900FBE0F903D
:100890001F9018951F920F920FB60F9211242F934D
:1008A0003F934F935F936F937F938F939F93AF93F8
:1008B000BF93EF93FF938CEA91E00E941101FF91A7
:1008C000EF91BF91AF919F918F917F916F915F91C8
:1008D0004F913F912F910F900FBE0F901F90189541
:1008E0001F920F920FB60F9211242F938F939F9305
:1008F000EF93FF93E091BC01F091BD018081E09105
:10090000C201F091C30182FD12C090818091C501A6
:100910008F5F8F732091C601821751F0E091C5015E
:10092000F0E0E455FE4F958F8093C50101C08081B2
:10093000FF91EF919F918F912F910F900FBE0F908C
:100940001F901895CF93CFB7F894809192018111A1
:1009500027C0E0EBF0E08491E4ECF0E09491E82F24
:10096000F0E0EE0FFF1FEE56FF4FA591B491EC9112
:10097000E92321F461E08AE00E94DA0761E08AE07D
:100980000E942B098CB580618CBD8CB580648CBDB8
:1009900061E08DE00E942B0961E08BE00E942B0951
:1009A000809192018F5F80939201CFBFCF91089584
:1009B0008EBD00000DB407FEFDCF8EB508950CB4BA
:1009C00005FC0DC01EBC00000DB407FEFDCF9EB59A
:1009D0001EBC00000DB407FEFDCF8EB508951EBCF1
:1009E00000000DB407FEFDCF8EB51EBC00000DB497
:1009F00007FEFDCF9EB5089527E030E060E0A82F08
:100A0000B0E0722FE091A601F091A7019091A301AF
:100A1000AD01022E02C0559547950A94E2F78081F8
:100A200040FF02C0982B02C0909598239083E091DC
:100A3000AA01F091AB0190818091A501892B80835F
:100A4000E091A801F091A90190818091A4018923EE
:100A500041E050E011F440E050E001C0440F7A95CD
:100A6000EAF7642BE091AA01F091AB0140819091EB
:100A7000A5019095942390832150310910F6862F7B
:100A80000895CF9380E00E94FC04C82F80E00E946C
:100A9000FC042C2F30E0322F2227A901482BCA0159
:100AA000CF9108954F925F926F927F928F929F9213
:100AB000AF92BF92CF92DF92EF92FF920F931F936C
:100AC000CF93DF93C0905902D0905A02E0905B021E
:100AD000F0905C028091550290915602A0915702CD
:100AE000B0915802C81AD90AEA0AFB0A60915D025D
:100AF00070915E0280915F02909160029B01AC0157
:100B00000E94FE104B015C016091650270916602CB
:100B100080916702909168029B01AC010E942E0FA8
:100B20009B01AC01C501B4010E949F0F0E941110EE
:100B3000C114D104E104F104F9F4623071058105B6
:100B400091050CF092C010926D0210926E021092FC
:100B50006F021092700210925D0210925E0210926B
:100B60005F021092600210927D0210927E0210923B
:100B70007F02109280022AC100917D0210917E02B4
:100B800020917F02309180021C141D041E041F045A
:100B90000CF5101611061206130654F46C157D059B
:100BA0008E059F0564F520914B0221115EC027C080
:100BB000011511052105310509F457C06C157D0596
:100BC0008E059F050CF051C080914B02882309F4DB
:100BD0004CC03CC0101611061206130614F500276F
:100BE000112798010C191D092E093F09601771077B
:100BF0008207930724F420914B022223B1F19B0139
:100C0000AC0188279927DC01821B930BA40BB50B41
:100C100080937D0290937E02A0937F02B093800226
:100C200024C00115110521053105F9F08824992406
:100C300054018C189D08AE08BF08681579058A050F
:100C40009B059CF480914B0281110FC0309520953B
:100C5000109501951F4F2F4F3F4F00937D0210932A
:100C60007E0220937F023093800280907D029090DC
:100C70007E02A0907F02B090800281149104A104B2
:100C8000B104D1F48091810290918202A0918302FB
:100C9000B09184028093850290938602A09387028C
:100CA000B093880281E01C141D041E041F040CF084
:100CB00080E080934B024AC0C0908502D0908602AB
:100CC000E0908702F0908802A7019601C701B60163
:100CD0000E942E0F2B013C01C501B4010E94491056
:100CE00020E030E040E850E40E94FE1020E030E0D8
:100CF00040E85FE30E942E0F9B01AC01C301B201EB
:100D00000E949F0F9B01AC01C701B6010E942D0FED
:100D1000D62FC72F6C01E0908902F0908A020091D3
:100D20008B0210918C029701A8010E94F9101816ED
:100D30001CF4ED2EFC2E8601C701D801809385029C
:100D400090938602A0938702B09388023FEF831AA4
:100D5000930AA30AB30A80927D0290927E02A09227
:100D60007F02B0928002C0908502D0908602E0900F
:100D70008702F0908802C701B6010E9418106093A4
:100D80006D0270936E0280936F0290937002A701C0
:100D9000960160E074E284E799E40E949F0F6093FB
:100DA0005D0270935E0280935F02909360022091D7
:100DB0004B0221110BC0DC01CB01B05880935D02C6
:100DC00090935E02A0935F02B0936002DF91CF9197
:100DD0001F910F91FF90EF90DF90CF90BF90AF9059
:100DE0009F908F907F906F905F904F9008954F925B
:100DF0005F926F927F928F929F92AF92BF92CF92AB
:100E0000DF92EF92FF926B017C0120E030E0A901BC
:100E10000E949A0F87FF04C0F7FAF094F7F8F09455
:100E20008090650290906602A0906702B090680280
:100E3000A7019601C501B4010E949A0F882309F405
:100E400056C060917D0270917E0280917F029091E8
:100E500080020E9449102B013C01A7019601C501A7
:100E6000B4010E949F0F9B01AC01C301B2010E941B
:100E7000FE100E94111060937D0270937E02809399
:100E80007F0290938002A701960160E070E080E00D
:100E900090E40E949F0F0E94711126E53EE04DE212
:100EA0005FE30E94FE1020E034E244E759E40E9430
:100EB000FE1060938102709382028093830290936C
:100EC0008402C0926502D0926602E0926702F092BC
:100ED0006802FF90EF90DF90CF90BF90AF909F900F
:100EE0008F907F906F905F904F900C945205FF9081
:100EF000EF90DF90CF90BF90AF909F908F907F90BA
:100F00006F905F904F900895009769F0FC010190F9
:100F10000020E9F73197AF01481B590BBC018CEA5F
:100F200091E00C949C0080E090E00895CF92DF92D5
:100F3000EF92FF920F931F93CF93DF93CDB7DEB75E
:100F4000A1970FB6F894DEBF0FBECDBF9C0140E065
:100F500050E019A28E010F5D1F4F8AE0C82ED12CE0
:100F6000E12CF12CCA01B901A70196010E94C6111A
:100F7000605DF80162938F0121153105410551052E
:100F800089F7CF010E9484078C0185E391E00E94DC
:100F90008407800F911FA1960FB6F894DEBF0FBE95
:100FA000CDBFDF91CF911F910F91FF90EF90DF9018
:100FB000CF90089590E0FC01E253FF4F2491FC0193
:100FC000E654FF4F3491FC01EA55FF4FE491EE23C4
:100FD00009F43CC0222339F1233091F038F4213058
:100FE000A9F0223001F584B58F7D12C0273091F031
:100FF0002830A1F02430B9F4809180008F7D03C0A7
:10100000809180008F77809380000DC084B58F77AA
:1010100084BD09C08091B0008F7703C08091B0007B
:101020008F7D8093B000F0E0EE0FFF1FE456FF4F7E
:10103000A591B4919FB7F894611104C08C9130953B
:10104000382302C0EC913E2B3C939FBF0895FF9242
:101050000F931F93CF93DF93F82EEB01809105033D
:101060000F2D10E0882309F460C060E080919702A2
:101070000E94DA078F2D0E94FC0480939102000FDA
:10108000012F001F110B012B69F08B810E94FC04C2
:101090008A810E94FC0489810E94FC0488810E944C
:1010A000FC04B1C00E9441050E94410561E08091AD
:1010B00097020E94DA0760E0809197020E94DA07A7
:1010C0008F2D0E94FC0480E00E94FC0490E0A0E0D0
:1010D000B0E0BA2FA92F982F882788839983AA83F5
:1010E000BB8380E00E94FC04488159816A817B8136
:1010F000482B762F652F542F4427488359836A83C2
:101100007B8380E00E94FC04488159816A817B8155
:10111000482B762F652F542F4427488359836A83A1
:101120007B8380E00E94FC0465C00E94A2048DE5E0
:101130008CBD81E08DBD60E0809197020E94DA074E
:101140008F2D0E94D80480939102000F012F001F61
:10115000110B012B69F08B810E94D8048A810E94B7
:10116000D80489810E94D80488810E94D8044BC089
:101170000E94DF040E94DF0461E0809197020E94D8
:10118000DA0760E0809197020E94DA078F2D0E94B3
:10119000D80480E00E94D80490E0A0E0B0E0BA2F2C
:1011A000A92F982F882788839983AA83BB8380E0FF
:1011B0000E94D804488159816A817B81482B762F0F
:1011C000652F542F4427488359836A837B8380E0AB
:1011D0000E94D804488159816A817B81482B762FEF
:1011E000652F542F4427488359836A837B8380E08B
:1011F0000E94D804488159816A817B81482B4883A9
:1012000059836A837B8361E080919702DF91CF915C
:101210001F910F91FF900C94DA07EFEDF2E04081FF
:10122000518162817381707F90E0A0E0B0E0B82FBF
:10123000AA279927882788279927AA27BF70842B50
:10124000952BA62BB72B80839183A283B383BF01F9
:101250008CEE0C942708CF93DF9390E0FC01E654CA
:10126000FF4F2491FC01EA55FF4F8491882361F1DF
:1012700090E0880F991FFC01EE56FF4FC591D49165
:10128000FC01E456FF4FA591B491611109C09FB7CD
:10129000F8948881209582238883EC912E230BC0BB
:1012A000623061F49FB7F8948881322F30958323A0
:1012B0008883EC912E2B2C939FBF06C08FB7F89498
:1012C000E8812E2B28838FBFDF91CF9108958F92D5
:1012D0009F92AF92BF92CF92DF92EF92FF926B01FB
:1012E0007C010E94DB034B015C01C114D104E104C9
:1012F000F104F1F00E94DB03DC01CB0188199909AC
:10130000AA09BB09883E9340A105B10570F321E00D
:10131000C21AD108E108F10888EE880E83E0981E11
:10132000A11CB11CC114D104E104F10419F7DDCFF3
:10133000FF90EF90DF90CF90BF90AF909F908F90F5
:101340000895789484B5826084BD84B5816084BD3D
:1013500085B5826085BD85B5816085BD80916E0053
:10136000816080936E001092810080918100826084
:1013700080938100809181008160809381008091C1
:1013800080008160809380008091B10084608093B0
:10139000B1008091B00081608093B00080917A00AC
:1013A000846080937A0080917A00826080937A00D2
:1013B00080917A00816080937A0080917A008068C1
:1013C00080937A001092C10061E088E00E942B09AE
:1013D000C4E0D0E061E088E00E94DA076AE070E0F3
:1013E00080E090E00E94670960E088E00E94DA07F0
:1013F00064E670E080E090E00E946709219751F771
:101400000E94A204E091BC01F091BD0182E08083C2
:10141000E091B801F091B9011082E091BA01F09128
:10142000BB018FEC80831092C401E091C001F09168
:10143000C10186E08083E091BE01F091BF0180810F
:1014400080618083E091BE01F091BF01808188605E
:101450008083E091BE01F091BF018081806880832C
:10146000E091BE01F091BF0180818F7D80838CE28D
:1014700091E00E94840785E391E00E94840761E087
:1014800085E00E942B0961E085E00E94DA0788E38D
:1014900091E00E94840785E391E00E94840787E53C
:1014A00091E00E94840780919302909194020E949F
:1014B000960784E691E00E948407809199029091BA
:1014C0009A020E94960784E791E00E948407809127
:1014D0009502909196020E9496078FE791E00E94F4
:1014E000840780919702909198020E94960768EC79
:1014F00070E080E090E00E946709809193029091F3
:1015000094028F3F2FEF920741F061E00E942B0978
:1015100061E0809193020E94DA0780919902909194
:101520009A028F3F2FEF920719F061E00E942B097A
:1015300080919502909196028F3F2FEF920741F094
:1015400061E00E942B0960E0809195020E94DA0719
:1015500061E0809197020E942B0961E080919702DF
:101560000E94DA0780910503882309F45AC061E0DC
:1015700080919D010E942B0961E08091A1010E9450
:101580002B0962E080919F010E942B0940919D01EF
:1015900050919E01FA01E654FF4FE491E093A301BC
:1015A00020919F013091A001F901E654FF4FE49191
:1015B000E093A4018091A1019091A201FC01E65465
:1015C000FF4FE491E093A501FA01EA55FF4FE49142
:1015D000F0E0EE0FFF1FE456FF4F459154915093FA
:1015E000A7014093A601F901EA55FF4FE491F0E00D
:1015F000EE0FFF1FE857FF4F259134913093A9015B
:101600002093A801FC01EA55FF4FE491F0E0EE0FB2
:10161000FF1FE456FF4F859194919093AB01809307
:10162000AA016BE972E080E80E9427086FE972E086
:1016300080E90E9427088091F3029091F402A09122
:10164000F502B091F6029927AA27BB278093F302EF
:101650009093F402A093F502B093F60263EF72E068
:1016600081E90E94270867EA72E083E90E9427085F
:101670006BEA72E084E90E9427086FEA72E085E96C
:101680000E94270863EB72E08DEA0E94270867EB4F
:1016900072E083EB0E9427086FED72E08CEE0E94EF
:1016A000270863EE72E08DEE0E9427086BEE72E071
:1016B00080EF0E9427088091F7029091F802A09194
:1016C000F902B091FA029927AA27BB278093F70263
:1016D0009093F802A093F902B093FA0267EF72E0D8
:1016E00082EF0E9427088091DF029091E002A09192
:1016F000E102B091E202807F88608093DF029093E4
:10170000E002A093E102B093E2026FED72E08CEE92
:101710000E9427088091DF029091E002A091E102EF
:10172000B091E2029F77AE7F90688093DF02909342
:10173000E002A093E102B093E2026FED72E08CEE62
:101740000E9427088EEA97E4A1EEBDE380938D0204
:1017500090938E02A0938F02B09390028091DF024B
:101760009091E002A091E102B091E202A260809328
:10177000DF029093E002A093E102B093E2026FEDEA
:1017800072E08CEE0E9427082AE037ED43EA5CE322
:1017900060918D0270918E0280918F0290919002E3
:1017A0000E942E0F2AEA30ED40E152E40E94FE1022
:1017B0002CEE31E548E35EE30E949F0F20E030E02D
:1017C00040E85FE30E942D0F0E941810F62E8091D2
:1017D0009F029091A002A091A102B091A202AC013F
:1017E000BD01507E8F2D90E0A0E0B0E0BA2FA92F70
:1017F000982F882788279F71AA27BB27842B952B92
:10180000A62BB72B80939F029093A002A093A102D6
:10181000B093A2026FE972E080E90E9427086F2D61
:1018200070E080E090E00E94491020E030E040E06D
:101830005FE30E94FE100E9418106F7180919F025A
:101840009091A002A091A102B091A202807E862B6D
:1018500080939F029093A002A093A102B093A20252
:101860006FE972E080E90E94270880E293E090939C
:1018700004038093030380919B0290919C02A091AA
:101880009D02B0919E02846080939B0290939C0283
:10189000A0939D02B0939E026BE972E080E80E94E3
:1018A00027088091EB029091EC02A091ED02B0919B
:1018B000EE02A4608093EB029093EC02A093ED0201
:1018C000B093EE026BEE72E080EF0E94270886E094
:1018D0000E940D0920E030E04AEF54E4609161027B
:1018E0007091620280916302909164020E949A0F4B
:1018F000882309F451C080E090E0AAEFB4E480931B
:10190000610290936202A0936302B093640280E04C
:1019100090E0AAEFB3E48093890290938A02A093A7
:101920008B02B0938C0280917D0290917E02A091F7
:101930007F02B0918002181619061A061B0664F57C
:1019400060915D0270915E0280915F0290916002F1
:101950009B01AC010E94FE106B017C01609165024D
:101960007091660280916702909168029B01AC01C0
:101970000E942E0F9B01AC01C701B6010E949F0F70
:101980000E94111060937D0270937E0280937F020B
:10199000909380020E94520560E070E08AEF95E427
:1019A0000E94F70682E08093780261E00E942B0992
:1019B00060917702C1E06C27809178020E94DA077B
:1019C0001092510210925202C093770289E492E081
:1019D0000E9487034091590250915A0260915B0224
:1019E00070915C028091550290915602A09157022D
:1019F000B0915802481759076A077B0709F058C089
:101A000061E088E00E94DA076AE070E080E090E040
:101A10000E94670960E088E00E94DA0764E670E0EF
:101A200080E090E00E946709209193014091590263
:101A300050915A0260915B0270915C028091550254
:101A400090915602A0915702B09158022223B1F012
:101A5000805A9B4AAF4FBF4F84179507A607B70719
:101A600051F08093590290935A02A0935B02B09375
:101A70005C020E9452051092930116C08056944554
:101A8000A109B10984179507A607B70751F08093FC
:101A9000590290935A02A0935B02B0935C020E9499
:101AA000520581E08093930189E492E00E948703CC
:101AB00080916D0290916E02A0916F02B0917002C0
:101AC000892B8A2B8B2B09F450C00E94DB036B01FE
:101AD0007C018091710290917202A0917302B09189
:101AE0007402B701A601481B590B6A0B7B0B80914E
:101AF0006D0290916E02A0916F02B0917002481732
:101B000059076A077B0788F120914B0280915502A3
:101B100090915602A0915702B0915802222321F0D1
:101B20000196A11DB11D03C00197A109B1098093C0
:101B3000550290935602A0935702B09358024091D9
:101B4000550250915602609157027091580289E4F3
:101B500092E00E940A03C0927102D0927202E09257
:101B60007302F09274020E9452050E94A20132CFC9
:101B7000ECEAF1E01382128288EE93E0A0E0B0E09C
:101B800084839583A683B78384E091E091838083E7
:101B900085EC90E09587848784EC90E09787868732
:101BA00080EC90E0918B808B81EC90E0938B828B2A
:101BB00082EC90E0958B848B86EC90E0978B868B03
:101BC000118E128E138E148EEDE8F2E08EEA97E4F9
:101BD000A1EEBDE380839183A283B383158282E06B
:101BE00090E09783868384E090E09187808785E00A
:101BF00090E09387828783E090E0958784871686BC
:101C00001786108A118A128A138A148A158A168AEC
:101C1000178A108E118E128E138E148E158E168EBC
:101C2000178E10A211A212A213A214A215A216A21C
:101C300017A210A611A612A613A614A615A684E52F
:101C400095EBAAEABAEA86A797A7A0ABB1AB8AEA56
:101C500094E5A5E9BAE482AB93ABA4ABB5AB89E25A
:101C600099E2A9E4B4E286AB97ABA0AFB1AF82E250
:101C700092E4A0E1B0E182AF93AFA4AFB5AF8FEF34
:101C80009FEFAFEFBBEF8093CB029093CC02A0937A
:101C9000CD02B093CE028DE797E7ABEBB5EB809327
:101CA000CF029093D002A093D102B093D20286E5E6
:101CB00095E5A9E2B9E48093D3029093D402A0936E
:101CC000D502B093D60282E292E4A0E4B0E0809321
:101CD000D7029093D802A093D902B093DA0286E596
:101CE00090E8AFEFBFEF8093DB029093DC02A0930C
:101CF000DD02B093DE021092DF021092E002109239
:101D0000E1021092E2021092E3021092E4021092B9
:101D1000E5021092E6021092E7021092E802109299
:101D2000E9021092EA0280E894E0A5E0B0E0809336
:101D3000EB029093EC02A093ED02B093EE021092AE
:101D4000EF021092F0021092F1021092F202109241
:101D5000F3021092F4021092F5021092F602109221
:101D6000F7021092F8021092F9021092FA02109201
:101D7000FB021092FC021092FD021092FE0280E023
:101D800090E0A7EFB0E08093FF0290930003A09350
:101D90000103B09302031092040310920303109204
:101DA0000503E9E4F2E086E191E09183808381E03C
:101DB00083831486158616861786108A118A128ADE
:101DC000138A148A158A168A178A80E090E0A0E8A0
:101DD000BFE3808F918FA28FB38F148E158E168ED6
:101DE000178E80A391A3A2A3B3A314A215A216A237
:101DF00017A221E030E035A724A72FEF27A710A6D0
:101E000011A612A613A624E0248333E0358326838B
:101E100025E0278316A614AA15AA16AA17AA10AE9B
:101E200011AE12AE13AE14AE15AE16AE17AE809351
:101E3000890290938A02A0938B02B0938C02128243
:101E40001086118612861386CF010E94870360E0F8
:101E500070E080E89FE30C94F7065058BB27AA2750
:101E60000E94450F0C94BF100E94B11038F00E94E0
:101E7000B81020F039F49F3F19F426F40C94AE10FA
:101E80000EF4E095E7FB0C94A810E92F0E94D01007
:101E900058F3BA17620773078407950720F079F49F
:101EA000A6F50C94F2100EF4E0950B2EBA2FA02D8F
:101EB0000B01B90190010C01CA01A0011124FF27F7
:101EC000591B99F0593F50F4503E68F11A16F040F2
:101ED000A22F232F342F4427585FF3CF46953795F1
:101EE0002795A795F0405395C9F77EF41F16BA0BB6
:101EF000620B730B840BBAF09150A1F0FF0FBB1F64
:101F0000661F771F881FC2F70EC0BA0F621F731FAC
:101F1000841F48F4879577956795B795F7959E3F09
:101F200008F0B0CF9395880F08F09927EE0F97959A
:101F3000879508950E94841008F481E008950E9416
:101F4000B30F0C94BF100E94B81058F00E94B1104B
:101F500040F029F45F3F29F00C94A81051110C9423
:101F6000F3100C94AE100E94D01068F39923B1F3D3
:101F7000552391F3951B550BBB27AA2762177307AF
:101F8000840738F09F5F5F4F220F331F441FAA1F43
:101F9000A9F335D00E2E3AF0E0E832D091505040FF
:101FA000E695001CCAF72BD0FE2F29D0660F771FAD
:101FB000881FBB1F261737074807AB07B0E809F093
:101FC000BB0B802DBF01FF2793585F4F3AF09E3F18
:101FD000510578F00C94A8100C94F3105F3FE4F3D3
:101FE000983ED4F3869577956795B795F7959F5F5B
:101FF000C9F7880F911D9695879597F90895E1E0A7
:10200000660F771F881FBB1F621773078407BA0705
:1020100020F0621B730B840BBA0BEE1F88F7E09560
:1020200008950E9418106894B1110C94F31008954B
:102030000E94D81088F09F5798F0B92F9927B75170
:10204000B0F0E1F0660F771F881F991F1AF0BA955C
:10205000C9F714C0B13091F00E94F210B1E00895B8
:102060000C94F210672F782F8827B85F39F0B93FAA
:10207000CCF3869577956795B395D9F73EF490950F
:102080008095709561957F4F8F4F9F4F0895E8948D
:1020900009C097FB3EF490958095709561957F4FB0
:1020A0008F4F9F4F9923A9F0F92F96E9BB2793955E
:1020B000F695879577956795B795F111F8CFFAF46E
:1020C000BB0F11F460FF1BC06F5F7F4F8F4F9F4F9F
:1020D00016C0882311F096E911C0772321F09EE8FD
:1020E000872F762F05C0662371F096E8862F70E063
:1020F00060E02AF09A95660F771F881FDAF7880F3D
:102100009695879597F90895990F0008550FAA0B92
:10211000E0E8FEEF16161706E807F907C0F01216FA
:102120001306E407F50798F0621B730B840B950BFD
:1021300039F40A2661F0232B242B252B21F4089552
:102140000A2609F4A140A6958FEF811D811D0895EF
:1021500097F99F6780E870E060E008959FEF80EC5A
:10216000089500240A9416161706180609060895FD
:1021700000240A9412161306140605060895092E63
:102180000394000C11F4882352F0BB0F40F4BF2BD2
:1021900011F460FF04C06F5F7F4F8F4F9F4F089512
:1021A00057FD9058440F551F59F05F3F71F0479508
:1021B000880F97FB991F61F09F3F79F087950895ED
:1021C000121613061406551FF2CF4695F1DF08C00C
:1021D000161617061806991FF1CF86957105610529
:1021E00008940895E894BB2766277727CB0197F9D1
:1021F00008950E94841008F48FEF08950E94111131
:102200000C94BF100E94B11038F00E94B81020F05A
:10221000952311F00C94A8100C94AE1011240C947A
:10222000F3100E94D01070F3959FC1F3950F50E00A
:10223000551F629FF001729FBB27F00DB11D639F78
:10224000AA27F00DB11DAA1F649F6627B00DA11D1E
:10225000661F829F2227B00DA11D621F739FB00DC4
:10226000A11D621F839FA00D611D221F749F332734
:10227000A00D611D231F849F600D211D822F762FCD
:102280006A2F11249F5750409AF0F1F088234AF0AA
:10229000EE0FFF1FBB1F661F771F881F9150504016
:1022A000A9F79E3F510580F00C94A8100C94F310F0
:1022B0005F3FE4F3983ED4F3869577956795B7959D
:1022C000F795E7959F5FC1F7FE2B880F911D9695B7
:1022D000879597F9089519F416F40C94AE100C94A0
:1022E000B1110E94D810B8F39923C9F3B6F39F57E0
:1022F000550B87FF0E94BF110024A0E640EA900121
:1023000080585695979528F4805C660F771F881F34
:1023100020F026173707480730F4621B730B840B35
:10232000202931294A2BA695179407942025312579
:102330004A2758F7660F771F881F20F026173707A0
:10234000480730F4620B730B840B200D311D411DC7
:10235000A09581F7B901842F9158880F969587959C
:1023600008959F3F31F0915020F4879577956795B8
:10237000B795880F911D9695879597F90895915077
:102380005040660F771F881FD2F70895A1E21A2EDA
:10239000AA1BBB1BFD010DC0AA1FBB1FEE1FFF1F09
:1023A000A217B307E407F50720F0A21BB30BE40B59
:1023B000F50B661F771F881F991F1A9469F76095A0
:1023C0007095809590959B01AC01BD01CF0108955A
:1023D000052E97FB1EF400940E94FF1157FD07D0B5
:1023E0000E94C61107FC03D04EF40C94FF115095C7
:1023F0004095309521953F4F4F4F5F4F08959095F1
:102400008095709561957F4F8F4F9F4F0895EE0F88
:10241000FF1F0590F491E02D099481E090E0F8947D
:082420000C941212F894FFCF96
:102428000000000033019C00CA008001FB00D900B5
:10243800ED0000000000BB0387034F030A03F4020A
:10244800BC029B0267024602F001AC015374617240
:10245800742E2E2E000D0A00544D43323133302095
:102468005374657070657220647269766572206C49
:1024780069627261727900456E61626C652070698B
:102488006E3A2000446972656374696F6E207069E2
:102498006E3A2000537465702070696E3A200043CC
:1024A8006869702073656C6563742070696E3A2082
:0224B800000022
:00000001FF
